{
  "_format": "hh-sol-artifact-1",
  "contractName": "HabitDotV3",
  "sourceName": "contracts/HabitDotV3.sol",
  "abi": [
    {
      "inputs": [],
      "stateMutability": "nonpayable",
      "type": "constructor"
    },
    {
      "anonymous": false,
      "inputs": [
        {
          "indexed": false,
          "internalType": "uint256",
          "name": "oldRatio",
          "type": "uint256"
        },
        {
          "indexed": false,
          "internalType": "uint256",
          "name": "newRatio",
          "type": "uint256"
        }
      ],
      "name": "BreakEvenRatioUpdated",
      "type": "event"
    },
    {
      "anonymous": false,
      "inputs": [
        {
          "indexed": true,
          "internalType": "address",
          "name": "user",
          "type": "address"
        },
        {
          "indexed": false,
          "internalType": "uint256",
          "name": "habitId",
          "type": "uint256"
        },
        {
          "indexed": false,
          "internalType": "address",
          "name": "validator",
          "type": "address"
        },
        {
          "indexed": false,
          "internalType": "string",
          "name": "proofUrl",
          "type": "string"
        }
      ],
      "name": "CheckInApproved",
      "type": "event"
    },
    {
      "anonymous": false,
      "inputs": [
        {
          "indexed": true,
          "internalType": "address",
          "name": "user",
          "type": "address"
        },
        {
          "indexed": false,
          "internalType": "uint256",
          "name": "habitId",
          "type": "uint256"
        },
        {
          "indexed": false,
          "internalType": "address",
          "name": "validator",
          "type": "address"
        },
        {
          "indexed": false,
          "internalType": "string",
          "name": "proofUrl",
          "type": "string"
        }
      ],
      "name": "CheckInRejected",
      "type": "event"
    },
    {
      "anonymous": false,
      "inputs": [
        {
          "indexed": true,
          "internalType": "address",
          "name": "user",
          "type": "address"
        },
        {
          "indexed": false,
          "internalType": "uint256",
          "name": "habitId",
          "type": "uint256"
        },
        {
          "indexed": false,
          "internalType": "string",
          "name": "proofUrl",
          "type": "string"
        }
      ],
      "name": "CheckInRequested",
      "type": "event"
    },
    {
      "anonymous": false,
      "inputs": [
        {
          "indexed": true,
          "internalType": "address",
          "name": "user",
          "type": "address"
        },
        {
          "indexed": true,
          "internalType": "address",
          "name": "tokenAddress",
          "type": "address"
        },
        {
          "indexed": false,
          "internalType": "uint256",
          "name": "amount",
          "type": "uint256"
        }
      ],
      "name": "DepositERC20",
      "type": "event"
    },
    {
      "anonymous": false,
      "inputs": [
        {
          "indexed": true,
          "internalType": "address",
          "name": "tokenAddress",
          "type": "address"
        },
        {
          "indexed": true,
          "internalType": "address",
          "name": "owner",
          "type": "address"
        },
        {
          "indexed": false,
          "internalType": "uint256",
          "name": "amount",
          "type": "uint256"
        }
      ],
      "name": "ERC20Withdrawn",
      "type": "event"
    },
    {
      "anonymous": false,
      "inputs": [
        {
          "indexed": true,
          "internalType": "address",
          "name": "user",
          "type": "address"
        },
        {
          "indexed": false,
          "internalType": "uint256",
          "name": "habitId",
          "type": "uint256"
        },
        {
          "indexed": false,
          "internalType": "uint256",
          "name": "abandonedAtDay",
          "type": "uint256"
        }
      ],
      "name": "HabitAbandoned",
      "type": "event"
    },
    {
      "anonymous": false,
      "inputs": [
        {
          "indexed": true,
          "internalType": "address",
          "name": "user",
          "type": "address"
        },
        {
          "indexed": false,
          "internalType": "uint256",
          "name": "habitId",
          "type": "uint256"
        },
        {
          "indexed": false,
          "internalType": "uint256",
          "name": "totalRewardPoints",
          "type": "uint256"
        },
        {
          "indexed": false,
          "internalType": "uint256",
          "name": "totalDays",
          "type": "uint256"
        }
      ],
      "name": "HabitCompleted",
      "type": "event"
    },
    {
      "anonymous": false,
      "inputs": [
        {
          "indexed": true,
          "internalType": "address",
          "name": "user",
          "type": "address"
        },
        {
          "indexed": false,
          "internalType": "uint256",
          "name": "habitId",
          "type": "uint256"
        },
        {
          "indexed": false,
          "internalType": "uint256",
          "name": "depositAmount",
          "type": "uint256"
        },
        {
          "indexed": false,
          "internalType": "address",
          "name": "depositToken",
          "type": "address"
        }
      ],
      "name": "HabitStarted",
      "type": "event"
    },
    {
      "anonymous": false,
      "inputs": [
        {
          "indexed": false,
          "internalType": "bool",
          "name": "enabled",
          "type": "bool"
        }
      ],
      "name": "NativeTransactionsToggled",
      "type": "event"
    },
    {
      "anonymous": false,
      "inputs": [
        {
          "indexed": true,
          "internalType": "address",
          "name": "owner",
          "type": "address"
        },
        {
          "indexed": false,
          "internalType": "uint256",
          "name": "amount",
          "type": "uint256"
        }
      ],
      "name": "NativeWithdrawn",
      "type": "event"
    },
    {
      "anonymous": false,
      "inputs": [
        {
          "indexed": false,
          "internalType": "uint256",
          "name": "oldMultiplier",
          "type": "uint256"
        },
        {
          "indexed": false,
          "internalType": "uint256",
          "name": "newMultiplier",
          "type": "uint256"
        }
      ],
      "name": "ProfitMultiplierUpdated",
      "type": "event"
    },
    {
      "anonymous": false,
      "inputs": [
        {
          "indexed": true,
          "internalType": "bytes32",
          "name": "role",
          "type": "bytes32"
        },
        {
          "indexed": true,
          "internalType": "bytes32",
          "name": "previousAdminRole",
          "type": "bytes32"
        },
        {
          "indexed": true,
          "internalType": "bytes32",
          "name": "newAdminRole",
          "type": "bytes32"
        }
      ],
      "name": "RoleAdminChanged",
      "type": "event"
    },
    {
      "anonymous": false,
      "inputs": [
        {
          "indexed": true,
          "internalType": "bytes32",
          "name": "role",
          "type": "bytes32"
        },
        {
          "indexed": true,
          "internalType": "address",
          "name": "account",
          "type": "address"
        },
        {
          "indexed": true,
          "internalType": "address",
          "name": "sender",
          "type": "address"
        }
      ],
      "name": "RoleGranted",
      "type": "event"
    },
    {
      "anonymous": false,
      "inputs": [
        {
          "indexed": true,
          "internalType": "bytes32",
          "name": "role",
          "type": "bytes32"
        },
        {
          "indexed": true,
          "internalType": "address",
          "name": "account",
          "type": "address"
        },
        {
          "indexed": true,
          "internalType": "address",
          "name": "sender",
          "type": "address"
        }
      ],
      "name": "RoleRevoked",
      "type": "event"
    },
    {
      "anonymous": false,
      "inputs": [
        {
          "indexed": true,
          "internalType": "address",
          "name": "user",
          "type": "address"
        },
        {
          "indexed": false,
          "internalType": "uint256",
          "name": "amount",
          "type": "uint256"
        },
        {
          "indexed": false,
          "internalType": "address",
          "name": "tokenAddress",
          "type": "address"
        }
      ],
      "name": "Staked",
      "type": "event"
    },
    {
      "anonymous": false,
      "inputs": [
        {
          "indexed": true,
          "internalType": "address",
          "name": "user",
          "type": "address"
        },
        {
          "indexed": false,
          "internalType": "uint256",
          "name": "amount",
          "type": "uint256"
        },
        {
          "indexed": false,
          "internalType": "address",
          "name": "tokenAddress",
          "type": "address"
        }
      ],
      "name": "Unstaked",
      "type": "event"
    },
    {
      "inputs": [],
      "name": "DEFAULT_ADMIN_ROLE",
      "outputs": [
        {
          "internalType": "bytes32",
          "name": "",
          "type": "bytes32"
        }
      ],
      "stateMutability": "view",
      "type": "function"
    },
    {
      "inputs": [],
      "name": "MOONBEAM_CHAIN_ID",
      "outputs": [
        {
          "internalType": "uint64",
          "name": "",
          "type": "uint64"
        }
      ],
      "stateMutability": "view",
      "type": "function"
    },
    {
      "inputs": [],
      "name": "SLPX_ADDRESS",
      "outputs": [
        {
          "internalType": "address",
          "name": "",
          "type": "address"
        }
      ],
      "stateMutability": "view",
      "type": "function"
    },
    {
      "inputs": [],
      "name": "VALIDATOR_ROLE",
      "outputs": [
        {
          "internalType": "bytes32",
          "name": "",
          "type": "bytes32"
        }
      ],
      "stateMutability": "view",
      "type": "function"
    },
    {
      "inputs": [],
      "name": "VXCDOT_ADDRESS",
      "outputs": [
        {
          "internalType": "address",
          "name": "",
          "type": "address"
        }
      ],
      "stateMutability": "view",
      "type": "function"
    },
    {
      "inputs": [],
      "name": "XCDOT_ADDRESS",
      "outputs": [
        {
          "internalType": "address",
          "name": "",
          "type": "address"
        }
      ],
      "stateMutability": "view",
      "type": "function"
    },
    {
      "inputs": [
        {
          "internalType": "uint256",
          "name": "habitId",
          "type": "uint256"
        }
      ],
      "name": "abandonHabit",
      "outputs": [],
      "stateMutability": "nonpayable",
      "type": "function"
    },
    {
      "inputs": [
        {
          "internalType": "address",
          "name": "user",
          "type": "address"
        },
        {
          "internalType": "uint256",
          "name": "habitId",
          "type": "uint256"
        }
      ],
      "name": "approveCheckIn",
      "outputs": [],
      "stateMutability": "nonpayable",
      "type": "function"
    },
    {
      "inputs": [
        {
          "internalType": "address",
          "name": "validator",
          "type": "address"
        }
      ],
      "name": "assignValidator",
      "outputs": [],
      "stateMutability": "nonpayable",
      "type": "function"
    },
    {
      "inputs": [],
      "name": "breakEvenRatio",
      "outputs": [
        {
          "internalType": "uint256",
          "name": "",
          "type": "uint256"
        }
      ],
      "stateMutability": "view",
      "type": "function"
    },
    {
      "inputs": [
        {
          "internalType": "uint256",
          "name": "habitId",
          "type": "uint256"
        },
        {
          "internalType": "string",
          "name": "proofUrl",
          "type": "string"
        }
      ],
      "name": "checkIn",
      "outputs": [],
      "stateMutability": "nonpayable",
      "type": "function"
    },
    {
      "inputs": [
        {
          "internalType": "uint256",
          "name": "amount",
          "type": "uint256"
        }
      ],
      "name": "depositERC20ToContract",
      "outputs": [],
      "stateMutability": "nonpayable",
      "type": "function"
    },
    {
      "inputs": [],
      "name": "ethTransactionsEnabled",
      "outputs": [
        {
          "internalType": "bool",
          "name": "",
          "type": "bool"
        }
      ],
      "stateMutability": "view",
      "type": "function"
    },
    {
      "inputs": [
        {
          "internalType": "address",
          "name": "user",
          "type": "address"
        },
        {
          "internalType": "uint256",
          "name": "habitId",
          "type": "uint256"
        }
      ],
      "name": "getAbandonableRewards",
      "outputs": [
        {
          "internalType": "uint256",
          "name": "",
          "type": "uint256"
        }
      ],
      "stateMutability": "view",
      "type": "function"
    },
    {
      "inputs": [
        {
          "internalType": "address",
          "name": "user",
          "type": "address"
        },
        {
          "internalType": "uint256",
          "name": "habitId",
          "type": "uint256"
        }
      ],
      "name": "getHabitDetails",
      "outputs": [
        {
          "internalType": "uint256",
          "name": "depositAmount",
          "type": "uint256"
        },
        {
          "internalType": "address",
          "name": "depositToken",
          "type": "address"
        },
        {
          "internalType": "uint256",
          "name": "startTime",
          "type": "uint256"
        },
        {
          "internalType": "uint256",
          "name": "lastCheckIn",
          "type": "uint256"
        },
        {
          "internalType": "uint256",
          "name": "streakDays",
          "type": "uint256"
        },
        {
          "internalType": "uint256",
          "name": "rewardPoints",
          "type": "uint256"
        },
        {
          "internalType": "bool",
          "name": "active",
          "type": "bool"
        },
        {
          "internalType": "uint256",
          "name": "maxHabitDays",
          "type": "uint256"
        },
        {
          "internalType": "string",
          "name": "category",
          "type": "string"
        }
      ],
      "stateMutability": "view",
      "type": "function"
    },
    {
      "inputs": [],
      "name": "getPendingApprovals",
      "outputs": [
        {
          "internalType": "address[]",
          "name": "",
          "type": "address[]"
        },
        {
          "internalType": "uint256[]",
          "name": "",
          "type": "uint256[]"
        },
        {
          "internalType": "string[]",
          "name": "",
          "type": "string[]"
        }
      ],
      "stateMutability": "view",
      "type": "function"
    },
    {
      "inputs": [
        {
          "internalType": "bytes32",
          "name": "role",
          "type": "bytes32"
        }
      ],
      "name": "getRoleAdmin",
      "outputs": [
        {
          "internalType": "bytes32",
          "name": "",
          "type": "bytes32"
        }
      ],
      "stateMutability": "view",
      "type": "function"
    },
    {
      "inputs": [],
      "name": "getStakedBalance",
      "outputs": [
        {
          "internalType": "uint256",
          "name": "",
          "type": "uint256"
        }
      ],
      "stateMutability": "view",
      "type": "function"
    },
    {
      "inputs": [
        {
          "internalType": "address",
          "name": "user",
          "type": "address"
        }
      ],
      "name": "getUserHabits",
      "outputs": [
        {
          "internalType": "uint256[]",
          "name": "",
          "type": "uint256[]"
        }
      ],
      "stateMutability": "view",
      "type": "function"
    },
    {
      "inputs": [],
      "name": "getVTokenBalance",
      "outputs": [
        {
          "internalType": "uint256",
          "name": "",
          "type": "uint256"
        }
      ],
      "stateMutability": "view",
      "type": "function"
    },
    {
      "inputs": [
        {
          "internalType": "bytes32",
          "name": "role",
          "type": "bytes32"
        },
        {
          "internalType": "address",
          "name": "account",
          "type": "address"
        }
      ],
      "name": "grantRole",
      "outputs": [],
      "stateMutability": "nonpayable",
      "type": "function"
    },
    {
      "inputs": [
        {
          "internalType": "address",
          "name": "",
          "type": "address"
        }
      ],
      "name": "habitCount",
      "outputs": [
        {
          "internalType": "uint256",
          "name": "",
          "type": "uint256"
        }
      ],
      "stateMutability": "view",
      "type": "function"
    },
    {
      "inputs": [
        {
          "internalType": "address",
          "name": "",
          "type": "address"
        }
      ],
      "name": "habitValidationCounts",
      "outputs": [
        {
          "internalType": "uint256",
          "name": "",
          "type": "uint256"
        }
      ],
      "stateMutability": "view",
      "type": "function"
    },
    {
      "inputs": [
        {
          "internalType": "address",
          "name": "",
          "type": "address"
        },
        {
          "internalType": "uint256",
          "name": "",
          "type": "uint256"
        }
      ],
      "name": "habits",
      "outputs": [
        {
          "internalType": "uint256",
          "name": "depositAmount",
          "type": "uint256"
        },
        {
          "internalType": "address",
          "name": "depositToken",
          "type": "address"
        },
        {
          "internalType": "uint256",
          "name": "startTime",
          "type": "uint256"
        },
        {
          "internalType": "uint256",
          "name": "lastCheckIn",
          "type": "uint256"
        },
        {
          "internalType": "uint256",
          "name": "streakDays",
          "type": "uint256"
        },
        {
          "internalType": "uint256",
          "name": "rewardPoints",
          "type": "uint256"
        },
        {
          "internalType": "bool",
          "name": "active",
          "type": "bool"
        },
        {
          "internalType": "uint256",
          "name": "maxHabitDays",
          "type": "uint256"
        },
        {
          "internalType": "string",
          "name": "category",
          "type": "string"
        }
      ],
      "stateMutability": "view",
      "type": "function"
    },
    {
      "inputs": [
        {
          "internalType": "bytes32",
          "name": "role",
          "type": "bytes32"
        },
        {
          "internalType": "address",
          "name": "account",
          "type": "address"
        }
      ],
      "name": "hasRole",
      "outputs": [
        {
          "internalType": "bool",
          "name": "",
          "type": "bool"
        }
      ],
      "stateMutability": "view",
      "type": "function"
    },
    {
      "inputs": [],
      "name": "owner",
      "outputs": [
        {
          "internalType": "address",
          "name": "",
          "type": "address"
        }
      ],
      "stateMutability": "view",
      "type": "function"
    },
    {
      "inputs": [
        {
          "internalType": "address",
          "name": "",
          "type": "address"
        },
        {
          "internalType": "uint256",
          "name": "",
          "type": "uint256"
        }
      ],
      "name": "pendingApprovals",
      "outputs": [
        {
          "internalType": "bool",
          "name": "",
          "type": "bool"
        }
      ],
      "stateMutability": "view",
      "type": "function"
    },
    {
      "inputs": [],
      "name": "profitMultiplier",
      "outputs": [
        {
          "internalType": "uint256",
          "name": "",
          "type": "uint256"
        }
      ],
      "stateMutability": "view",
      "type": "function"
    },
    {
      "inputs": [
        {
          "internalType": "address",
          "name": "",
          "type": "address"
        },
        {
          "internalType": "uint256",
          "name": "",
          "type": "uint256"
        }
      ],
      "name": "proofs",
      "outputs": [
        {
          "internalType": "string",
          "name": "proofUrl",
          "type": "string"
        },
        {
          "internalType": "string",
          "name": "status",
          "type": "string"
        }
      ],
      "stateMutability": "view",
      "type": "function"
    },
    {
      "inputs": [
        {
          "internalType": "address",
          "name": "user",
          "type": "address"
        },
        {
          "internalType": "uint256",
          "name": "habitId",
          "type": "uint256"
        }
      ],
      "name": "rejectCheckIn",
      "outputs": [],
      "stateMutability": "nonpayable",
      "type": "function"
    },
    {
      "inputs": [
        {
          "internalType": "bytes32",
          "name": "role",
          "type": "bytes32"
        },
        {
          "internalType": "address",
          "name": "account",
          "type": "address"
        }
      ],
      "name": "renounceRole",
      "outputs": [],
      "stateMutability": "nonpayable",
      "type": "function"
    },
    {
      "inputs": [
        {
          "internalType": "bytes32",
          "name": "role",
          "type": "bytes32"
        },
        {
          "internalType": "address",
          "name": "account",
          "type": "address"
        }
      ],
      "name": "revokeRole",
      "outputs": [],
      "stateMutability": "nonpayable",
      "type": "function"
    },
    {
      "inputs": [
        {
          "internalType": "address",
          "name": "validator",
          "type": "address"
        }
      ],
      "name": "revokeValidator",
      "outputs": [],
      "stateMutability": "nonpayable",
      "type": "function"
    },
    {
      "inputs": [],
      "name": "slpx",
      "outputs": [
        {
          "internalType": "contract ISlpx",
          "name": "",
          "type": "address"
        }
      ],
      "stateMutability": "view",
      "type": "function"
    },
    {
      "inputs": [
        {
          "internalType": "uint256",
          "name": "amount",
          "type": "uint256"
        },
        {
          "internalType": "uint256",
          "name": "maxDays",
          "type": "uint256"
        },
        {
          "internalType": "string",
          "name": "category",
          "type": "string"
        }
      ],
      "name": "startHabitWithDOT",
      "outputs": [],
      "stateMutability": "nonpayable",
      "type": "function"
    },
    {
      "inputs": [
        {
          "internalType": "uint256",
          "name": "maxDays",
          "type": "uint256"
        },
        {
          "internalType": "string",
          "name": "category",
          "type": "string"
        }
      ],
      "name": "startHabitWithNative",
      "outputs": [],
      "stateMutability": "payable",
      "type": "function"
    },
    {
      "inputs": [
        {
          "internalType": "bytes4",
          "name": "interfaceId",
          "type": "bytes4"
        }
      ],
      "name": "supportsInterface",
      "outputs": [
        {
          "internalType": "bool",
          "name": "",
          "type": "bool"
        }
      ],
      "stateMutability": "view",
      "type": "function"
    },
    {
      "inputs": [
        {
          "internalType": "bool",
          "name": "enabled",
          "type": "bool"
        }
      ],
      "name": "toggleNativeTransactions",
      "outputs": [],
      "stateMutability": "nonpayable",
      "type": "function"
    },
    {
      "inputs": [
        {
          "internalType": "address",
          "name": "",
          "type": "address"
        }
      ],
      "name": "totalStaked",
      "outputs": [
        {
          "internalType": "uint256",
          "name": "",
          "type": "uint256"
        }
      ],
      "stateMutability": "view",
      "type": "function"
    },
    {
      "inputs": [
        {
          "internalType": "uint256",
          "name": "amount",
          "type": "uint256"
        }
      ],
      "name": "unstakeTokens",
      "outputs": [],
      "stateMutability": "nonpayable",
      "type": "function"
    },
    {
      "inputs": [
        {
          "internalType": "uint256",
          "name": "newRatio",
          "type": "uint256"
        }
      ],
      "name": "updateBreakEvenRatio",
      "outputs": [],
      "stateMutability": "nonpayable",
      "type": "function"
    },
    {
      "inputs": [
        {
          "internalType": "uint256",
          "name": "newMultiplier",
          "type": "uint256"
        }
      ],
      "name": "updateProfitMultiplier",
      "outputs": [],
      "stateMutability": "nonpayable",
      "type": "function"
    },
    {
      "inputs": [
        {
          "internalType": "address",
          "name": "",
          "type": "address"
        },
        {
          "internalType": "uint256",
          "name": "",
          "type": "uint256"
        }
      ],
      "name": "userHabits",
      "outputs": [
        {
          "internalType": "uint256",
          "name": "",
          "type": "uint256"
        }
      ],
      "stateMutability": "view",
      "type": "function"
    },
    {
      "inputs": [],
      "name": "vxcDOT",
      "outputs": [
        {
          "internalType": "contract IERC20",
          "name": "",
          "type": "address"
        }
      ],
      "stateMutability": "view",
      "type": "function"
    },
    {
      "inputs": [
        {
          "internalType": "address",
          "name": "tokenAddress",
          "type": "address"
        }
      ],
      "name": "withdrawERC20",
      "outputs": [],
      "stateMutability": "nonpayable",
      "type": "function"
    },
    {
      "inputs": [],
      "name": "withdrawNative",
      "outputs": [],
      "stateMutability": "nonpayable",
      "type": "function"
    },
    {
      "inputs": [],
      "name": "xcDOT",
      "outputs": [
        {
          "internalType": "contract IERC20",
          "name": "",
          "type": "address"
        }
      ],
      "stateMutability": "view",
      "type": "function"
    },
    {
      "stateMutability": "payable",
      "type": "receive"
    }
  ],
  "bytecode": "0x6080604052600a600555604b6006556001600760006101000a81548160ff02191690831515021790555034801561003557600080fd5b5033600460006101000a81548173ffffffffffffffffffffffffffffffffffffffff021916908373ffffffffffffffffffffffffffffffffffffffff16021790555061008a6000801b336101be60201b60201c565b6100ba7f21702c8af46127c7fa207f89d0b0a8441bb32959a0ac7df790e9ab1a25c98926336101be60201b60201c565b73ffffffff1fcacbd218edc0eba20fc2308c778080600160006101000a81548173ffffffffffffffffffffffffffffffffffffffff021916908373ffffffffffffffffffffffffffffffffffffffff16021790555073ffffffff15e1b7e3df971dd813bc394deb899abf600260006101000a81548173ffffffffffffffffffffffffffffffffffffffff021916908373ffffffffffffffffffffffffffffffffffffffff16021790555073f1d4797e51a4640a76769a50b57abe7479add3d8600360006101000a81548173ffffffffffffffffffffffffffffffffffffffff021916908373ffffffffffffffffffffffffffffffffffffffff16021790555061031c565b6101ce82826102aa60201b60201c565b6102a657600160008084815260200190815260200160002060000160008373ffffffffffffffffffffffffffffffffffffffff1673ffffffffffffffffffffffffffffffffffffffff16815260200190815260200160002060006101000a81548160ff02191690831515021790555061024b61031460201b60201c565b73ffffffffffffffffffffffffffffffffffffffff168173ffffffffffffffffffffffffffffffffffffffff16837f2f8788117e7eff1d82e926ec794901d17c78024a50270940304540a733656f0d60405160405180910390a45b5050565b600080600084815260200190815260200160002060000160008373ffffffffffffffffffffffffffffffffffffffff1673ffffffffffffffffffffffffffffffffffffffff16815260200190815260200160002060009054906101000a900460ff16905092915050565b600033905090565b615fa98061032b6000396000f3fe60806040526004361061028c5760003560e01c8063608e4dd01161015a578063ad8726ec116100c1578063c2f0c5a81161007a578063c2f0c5a814610a29578063c49baebe14610a54578063d547741f14610a7f578063e04e4b7614610aa8578063f0c7a36214610ad1578063f4f3b20014610b0e57610293565b8063ad8726ec1461090a578063ad9318e914610935578063b829abe514610960578063bce9b5421461098b578063c1ef528d146109c8578063c256074a14610a0d57610293565b80637f967063116101135780637f967063146107d45780638da5cb5b1461081157806391d148541461083c5780639bfd8d6114610879578063a217fddf146108b6578063ab64d93e146108e157610293565b8063608e4dd0146106d457806367deced2146106fd5780636b69d4c0146107265780636ecd91601461075157806373343bbe1461077c57806376965867146107a957610293565b80632f2ff15d116101fe578063406582ad116101b7578063406582ad146105c657806343334dce146105ef57806343fe8a1e1461062c57806350431ce4146106695780635579127e146106805780635d76da01146106a957610293565b80632f2ff15d146104a757806336568abe146104d057806336ae4568146104f95780633939f53d146105225780633d325bdb1461055f5780633d856fff1461058857610293565b8063154fb1f411610250578063154fb1f41461037d57806316bb0b3a146103c257806318befe6f146103ed578063190b22cb14610416578063248a9ca3146104415780632c3af95a1461047e57610293565b806301ffc9a714610298578063047564b7146102d5578063069dbba0146102fe57806309d1df69146103275780630d8703fc1461035257610293565b3661029357005b600080fd5b3480156102a457600080fd5b506102bf60048036038101906102ba9190614090565b610b37565b6040516102cc91906140d8565b60405180910390f35b3480156102e157600080fd5b506102fc60048036038101906102f79190614151565b610bb1565b005b34801561030a57600080fd5b50610325600480360381019061032091906141aa565b610c6e565b005b34801561033357600080fd5b5061033c610d52565b60405161034991906141e6565b60405180910390f35b34801561035e57600080fd5b50610367610d6a565b60405161037491906141e6565b60405180910390f35b34801561038957600080fd5b506103a4600480360381019061039f9190614237565b610d82565b6040516103b999989796959493929190614316565b60405180910390f35b3480156103ce57600080fd5b506103d7610ee9565b6040516103e491906143aa565b60405180910390f35b3480156103f957600080fd5b50610414600480360381019061040f91906144fa565b610f8c565b005b34801561042257600080fd5b5061042b611155565b60405161043891906141e6565b60405180910390f35b34801561044d57600080fd5b506104686004803603810190610463919061459f565b61116d565b60405161047591906145db565b60405180910390f35b34801561048a57600080fd5b506104a560048036038101906104a09190614151565b61118c565b005b3480156104b357600080fd5b506104ce60048036038101906104c991906145f6565b611249565b005b3480156104dc57600080fd5b506104f760048036038101906104f291906145f6565b61126a565b005b34801561050557600080fd5b50610520600480360381019061051b9190614237565b6112ed565b005b34801561052e57600080fd5b5061054960048036038101906105449190614237565b611759565b60405161055691906140d8565b60405180910390f35b34801561056b57600080fd5b5061058660048036038101906105819190614636565b611788565b005b34801561059457600080fd5b506105af60048036038101906105aa9190614237565b6119e4565b6040516105bd929190614663565b60405180910390f35b3480156105d257600080fd5b506105ed60048036038101906105e89190614636565b611b25565b005b3480156105fb57600080fd5b5061061660048036038101906106119190614151565b611c4a565b6040516106239190614758565b60405180910390f35b34801561063857600080fd5b50610653600480360381019061064e9190614151565b611ce1565b60405161066091906143aa565b60405180910390f35b34801561067557600080fd5b5061067e611cf9565b005b34801561068c57600080fd5b506106a760048036038101906106a29190614636565b611e6a565b005b3480156106b557600080fd5b506106be61211a565b6040516106cb91906147d9565b60405180910390f35b3480156106e057600080fd5b506106fb60048036038101906106f69190614636565b612140565b005b34801561070957600080fd5b50610724600480360381019061071f91906147f4565b6123af565b005b34801561073257600080fd5b5061073b612717565b60405161074891906143aa565b60405180910390f35b34801561075d57600080fd5b5061076661271d565b6040516107739190614873565b60405180910390f35b34801561078857600080fd5b50610791612723565b6040516107a093929190614a58565b60405180910390f35b3480156107b557600080fd5b506107be612b50565b6040516107cb91906143aa565b60405180910390f35b3480156107e057600080fd5b506107fb60048036038101906107f69190614237565b612bf3565b60405161080891906143aa565b60405180910390f35b34801561081d57600080fd5b50610826612ca7565b60405161083391906141e6565b60405180910390f35b34801561084857600080fd5b50610863600480360381019061085e91906145f6565b612ccd565b60405161087091906140d8565b60405180910390f35b34801561088557600080fd5b506108a0600480360381019061089b9190614151565b612d37565b6040516108ad91906143aa565b60405180910390f35b3480156108c257600080fd5b506108cb612d4f565b6040516108d891906145db565b60405180910390f35b3480156108ed57600080fd5b5061090860048036038101906109039190614636565b612d56565b005b34801561091657600080fd5b5061091f612e2b565b60405161092c9190614ac5565b60405180910390f35b34801561094157600080fd5b5061094a612e51565b60405161095791906143aa565b60405180910390f35b34801561096c57600080fd5b50610975612e57565b6040516109829190614ac5565b60405180910390f35b34801561099757600080fd5b506109b260048036038101906109ad9190614151565b612e7d565b6040516109bf91906143aa565b60405180910390f35b3480156109d457600080fd5b506109ef60048036038101906109ea9190614237565b612e95565b604051610a0499989796959493929190614316565b60405180910390f35b610a276004803603810190610a2291906147f4565b612fa5565b005b348015610a3557600080fd5b50610a3e613048565b604051610a4b91906140d8565b60405180910390f35b348015610a6057600080fd5b50610a6961305b565b604051610a7691906145db565b60405180910390f35b348015610a8b57600080fd5b50610aa66004803603810190610aa191906145f6565b61307f565b005b348015610ab457600080fd5b50610acf6004803603810190610aca9190614237565b6130a0565b005b348015610add57600080fd5b50610af86004803603810190610af39190614237565b61330f565b604051610b0591906143aa565b60405180910390f35b348015610b1a57600080fd5b50610b356004803603810190610b309190614151565b613340565b005b60007f7965db0b000000000000000000000000000000000000000000000000000000007bffffffffffffffffffffffffffffffffffffffffffffffffffffffff1916827bffffffffffffffffffffffffffffffffffffffffffffffffffffffff19161480610baa5750610ba9826135be565b5b9050919050565b600460009054906101000a900473ffffffffffffffffffffffffffffffffffffffff1673ffffffffffffffffffffffffffffffffffffffff163373ffffffffffffffffffffffffffffffffffffffff1614610c41576040517f08c379a0000000000000000000000000000000000000000000000000000000008152600401610c3890614b2c565b60405180910390fd5b610c6b7f21702c8af46127c7fa207f89d0b0a8441bb32959a0ac7df790e9ab1a25c989268261307f565b50565b600460009054906101000a900473ffffffffffffffffffffffffffffffffffffffff1673ffffffffffffffffffffffffffffffffffffffff163373ffffffffffffffffffffffffffffffffffffffff1614610cfe576040517f08c379a0000000000000000000000000000000000000000000000000000000008152600401610cf590614b2c565b60405180910390fd5b80600760006101000a81548160ff0219169083151502179055507fd92c8a3bdf96ff9f35692c754fc0586d4c96b4f080780e46c61d508fd8fb921581604051610d4791906140d8565b60405180910390a150565b73f1d4797e51a4640a76769a50b57abe7479add3d881565b73ffffffff15e1b7e3df971dd813bc394deb899abf81565b60008060008060008060008060606000600860008d73ffffffffffffffffffffffffffffffffffffffff1673ffffffffffffffffffffffffffffffffffffffff16815260200190815260200160002060008c8152602001908152602001600020905080600001548160010160009054906101000a900473ffffffffffffffffffffffffffffffffffffffff1682600201548360030154846004015485600501548660060160009054906101000a900460ff16876007015488600801808054610e4990614b7b565b80601f0160208091040260200160405190810160405280929190818152602001828054610e7590614b7b565b8015610ec25780601f10610e9757610100808354040283529160200191610ec2565b820191906000526020600020905b815481529060010190602001808311610ea557829003601f168201915b50505050509050995099509950995099509950995099509950509295985092959850929598565b6000600260009054906101000a900473ffffffffffffffffffffffffffffffffffffffff1673ffffffffffffffffffffffffffffffffffffffff166370a08231306040518263ffffffff1660e01b8152600401610f4691906141e6565b602060405180830381865afa158015610f63573d6000803e3d6000fd5b505050506040513d601f19601f82011682018060405250810190610f879190614bc1565b905090565b60008311610fcf576040517f08c379a0000000000000000000000000000000000000000000000000000000008152600401610fc690614c3a565b60405180910390fd5b600073ffffffff1fcacbd218edc0eba20fc2308c77808090508073ffffffffffffffffffffffffffffffffffffffff1663095ea7b330866040518363ffffffff1660e01b8152600401611023929190614c5a565b6020604051808303816000875af1158015611042573d6000803e3d6000fd5b505050506040513d601f19601f820116820180604052508101906110669190614c98565b508073ffffffffffffffffffffffffffffffffffffffff166323b872dd3330876040518463ffffffff1660e01b81526004016110a493929190614cc5565b6020604051808303816000875af11580156110c3573d6000803e3d6000fd5b505050506040513d601f19601f820116820180604052508101906110e79190614c98565b611126576040517f08c379a000000000000000000000000000000000000000000000000000000000815260040161111d90614d48565b60405180910390fd5b61112f84613628565b61114f8473ffffffff1fcacbd218edc0eba20fc2308c7780808585613896565b50505050565b73ffffffff1fcacbd218edc0eba20fc2308c77808081565b6000806000838152602001908152602001600020600101549050919050565b600460009054906101000a900473ffffffffffffffffffffffffffffffffffffffff1673ffffffffffffffffffffffffffffffffffffffff163373ffffffffffffffffffffffffffffffffffffffff161461121c576040517f08c379a000000000000000000000000000000000000000000000000000000000815260040161121390614b2c565b60405180910390fd5b6112467f21702c8af46127c7fa207f89d0b0a8441bb32959a0ac7df790e9ab1a25c9892682611249565b50565b6112528261116d565b61125b81613b59565b6112658383613b6d565b505050565b611272613c4d565b73ffffffffffffffffffffffffffffffffffffffff168173ffffffffffffffffffffffffffffffffffffffff16146112df576040517f08c379a00000000000000000000000000000000000000000000000000000000081526004016112d690614dda565b60405180910390fd5b6112e98282613c55565b5050565b7f21702c8af46127c7fa207f89d0b0a8441bb32959a0ac7df790e9ab1a25c9892661131781613b59565b600b60008473ffffffffffffffffffffffffffffffffffffffff1673ffffffffffffffffffffffffffffffffffffffff168152602001908152602001600020600083815260200190815260200160002060009054906101000a900460ff166113b4576040517f08c379a00000000000000000000000000000000000000000000000000000000081526004016113ab90614e6c565b60405180910390fd5b6000600860008573ffffffffffffffffffffffffffffffffffffffff1673ffffffffffffffffffffffffffffffffffffffff168152602001908152602001600020600084815260200190815260200160002090508060060160009054906101000a900460ff16611459576040517f08c379a000000000000000000000000000000000000000000000000000000000815260040161145090614ed8565b60405180910390fd5b8060030154421161149f576040517f08c379a000000000000000000000000000000000000000000000000000000000815260040161149690614f6a565b60405180910390fd5b6000606460065483600701546114b59190614fb9565b6114bf919061502a565b905060008183600001546114d3919061502a565b9050600082846004015410611501576064600554836114f29190614fb9565b6114fc919061502a565b611503565b815b90504284600301819055508360040160008154809291906115239061505b565b91905055508084600501600082825461153c91906150a3565b9250508190555083600701548460040154106115ad578673ffffffffffffffffffffffffffffffffffffffff167f9941d80856775fa281549088804409b69ad4828d68620fa3a37b78604246b6db87866005015487600401546040516115a4939291906150d7565b60405180910390a25b6000600b60008973ffffffffffffffffffffffffffffffffffffffff1673ffffffffffffffffffffffffffffffffffffffff168152602001908152602001600020600088815260200190815260200160002060006101000a81548160ff0219169083151502179055506040518060400160405280600881526020017f617070726f766564000000000000000000000000000000000000000000000000815250600d60008973ffffffffffffffffffffffffffffffffffffffff1673ffffffffffffffffffffffffffffffffffffffff168152602001908152602001600020600088815260200190815260200160002060010190816116ab91906152b0565b508673ffffffffffffffffffffffffffffffffffffffff167fb02e475d2420bda706b9ba66f2539afd3ae4ceb9aca92a075c3d528cbd6cf7508733600d60008c73ffffffffffffffffffffffffffffffffffffffff1673ffffffffffffffffffffffffffffffffffffffff16815260200190815260200160002060008b815260200190815260200160002060000160405161174893929190615406565b60405180910390a250505050505050565b600b6020528160005260406000206020528060005260406000206000915091509054906101000a900460ff1681565b600081116117cb576040517f08c379a00000000000000000000000000000000000000000000000000000000081526004016117c2906154b6565b60405180910390fd5b600073ffffffff1fcacbd218edc0eba20fc2308c778080905060008173ffffffffffffffffffffffffffffffffffffffff1663dd62ed3e33306040518363ffffffff1660e01b81526004016118219291906154d6565b602060405180830381865afa15801561183e573d6000803e3d6000fd5b505050506040513d601f19601f820116820180604052508101906118629190614bc1565b9050828110156118a7576040517f08c379a000000000000000000000000000000000000000000000000000000000815260040161189e90615571565b60405180910390fd5b8173ffffffffffffffffffffffffffffffffffffffff166323b872dd3330866040518463ffffffff1660e01b81526004016118e493929190614cc5565b6020604051808303816000875af1158015611903573d6000803e3d6000fd5b505050506040513d601f19601f820116820180604052508101906119279190614c98565b611966576040517f08c379a000000000000000000000000000000000000000000000000000000000815260040161195d90614d48565b60405180910390fd5b73ffffffff1fcacbd218edc0eba20fc2308c77808073ffffffffffffffffffffffffffffffffffffffff163373ffffffffffffffffffffffffffffffffffffffff167f2dfd2dfb41de1102485c9a50c6005dae2cdad90016d81a39c7691e941799151a856040516119d791906143aa565b60405180910390a3505050565b600d60205281600052604060002060205280600052604060002060009150915050806000018054611a1490614b7b565b80601f0160208091040260200160405190810160405280929190818152602001828054611a4090614b7b565b8015611a8d5780601f10611a6257610100808354040283529160200191611a8d565b820191906000526020600020905b815481529060010190602001808311611a7057829003601f168201915b505050505090806001018054611aa290614b7b565b80601f0160208091040260200160405190810160405280929190818152602001828054611ace90614b7b565b8015611b1b5780601f10611af057610100808354040283529160200191611b1b565b820191906000526020600020905b815481529060010190602001808311611afe57829003601f168201915b5050505050905082565b600460009054906101000a900473ffffffffffffffffffffffffffffffffffffffff1673ffffffffffffffffffffffffffffffffffffffff163373ffffffffffffffffffffffffffffffffffffffff1614611bb5576040517f08c379a0000000000000000000000000000000000000000000000000000000008152600401611bac90614b2c565b60405180910390fd5b600081118015611bc6575060648111155b611c05576040517f08c379a0000000000000000000000000000000000000000000000000000000008152600401611bfc906155dd565b60405180910390fd5b7f52131f10c5d81c605ca37eb68e3fe075d04893ddc5ded3865f72cb627f05e9ea60065482604051611c389291906155fd565b60405180910390a18060068190555050565b6060600960008373ffffffffffffffffffffffffffffffffffffffff1673ffffffffffffffffffffffffffffffffffffffff168152602001908152602001600020805480602002602001604051908101604052809291908181526020018280548015611cd557602002820191906000526020600020905b815481526020019060010190808311611cc1575b50505050509050919050565b600a6020528060005260406000206000915090505481565b600460009054906101000a900473ffffffffffffffffffffffffffffffffffffffff1673ffffffffffffffffffffffffffffffffffffffff163373ffffffffffffffffffffffffffffffffffffffff1614611d89576040517f08c379a0000000000000000000000000000000000000000000000000000000008152600401611d8090614b2c565b60405180910390fd5b6000479050600460009054906101000a900473ffffffffffffffffffffffffffffffffffffffff1673ffffffffffffffffffffffffffffffffffffffff166108fc829081150290604051600060405180830381858888f19350505050158015611df6573d6000803e3d6000fd5b50600460009054906101000a900473ffffffffffffffffffffffffffffffffffffffff1673ffffffffffffffffffffffffffffffffffffffff167fc303ca808382409472acbbf899c316cf439f409f6584aae22df86dfa3c9ed50482604051611e5f91906143aa565b60405180910390a250565b6000600860003373ffffffffffffffffffffffffffffffffffffffff1673ffffffffffffffffffffffffffffffffffffffff168152602001908152602001600020600083815260200190815260200160002090508060060160009054906101000a900460ff16611f0f576040517f08c379a0000000000000000000000000000000000000000000000000000000008152600401611f0690615672565b60405180910390fd5b60008160050154905060008260060160006101000a81548160ff021916908315150217905550600073ffffffffffffffffffffffffffffffffffffffff168260010160009054906101000a900473ffffffffffffffffffffffffffffffffffffffff1673ffffffffffffffffffffffffffffffffffffffff1603611fd9573373ffffffffffffffffffffffffffffffffffffffff166108fc829081150290604051600060405180830381858888f19350505050158015611fd3573d6000803e3d6000fd5b506120c1565b60008260010160009054906101000a900473ffffffffffffffffffffffffffffffffffffffff1690508073ffffffffffffffffffffffffffffffffffffffff1663a9059cbb33846040518363ffffffff1660e01b815260040161203d929190614c5a565b6020604051808303816000875af115801561205c573d6000803e3d6000fd5b505050506040513d601f19601f820116820180604052508101906120809190614c98565b6120bf576040517f08c379a00000000000000000000000000000000000000000000000000000000081526004016120b6906156de565b60405180910390fd5b505b3373ffffffffffffffffffffffffffffffffffffffff167f45289d4641312e6cc9cc7de71f1cf71f1520bf08619be98f135e639e4d09f2ed84846004015460405161210d9291906155fd565b60405180910390a2505050565b600360009054906101000a900473ffffffffffffffffffffffffffffffffffffffff1681565b600460009054906101000a900473ffffffffffffffffffffffffffffffffffffffff1673ffffffffffffffffffffffffffffffffffffffff163373ffffffffffffffffffffffffffffffffffffffff16146121d0576040517f08c379a00000000000000000000000000000000000000000000000000000000081526004016121c790614b2c565b60405180910390fd5b60008111612213576040517f08c379a000000000000000000000000000000000000000000000000000000000815260040161220a9061574a565b60405180910390fd5b600360009054906101000a900473ffffffffffffffffffffffffffffffffffffffff1673ffffffffffffffffffffffffffffffffffffffff166362aba6eb73ffffffff15e1b7e3df971dd813bc394deb899abf836105043060405160200161227b91906157b2565b60405160208183030381529060405260006040518663ffffffff1660e01b81526004016122ac9594939291906158e4565b600060405180830381600087803b1580156122c657600080fd5b505af11580156122da573d6000803e3d6000fd5b5050505080600e600073ffffffff1fcacbd218edc0eba20fc2308c77808073ffffffffffffffffffffffffffffffffffffffff1673ffffffffffffffffffffffffffffffffffffffff16815260200190815260200160002060008282546123419190615951565b925050819055503373ffffffffffffffffffffffffffffffffffffffff167fe85b7860587d17eba1b921a125cf25732cd9e64d1516f196df3c9c8fb8d513f38273ffffffff1fcacbd218edc0eba20fc2308c7780806040516123a4929190615985565b60405180910390a250565b6000600860003373ffffffffffffffffffffffffffffffffffffffff1673ffffffffffffffffffffffffffffffffffffffff168152602001908152602001600020600084815260200190815260200160002090508060060160009054906101000a900460ff16612454576040517f08c379a000000000000000000000000000000000000000000000000000000000815260040161244b906159fa565b60405180910390fd5b806007015481600401541061249e576040517f08c379a000000000000000000000000000000000000000000000000000000000815260040161249590615a66565b60405180910390fd5b6201518081600301546124b191906150a3565b42116124f2576040517f08c379a00000000000000000000000000000000000000000000000000000000081526004016124e990615ad2565b60405180910390fd5b600b60003373ffffffffffffffffffffffffffffffffffffffff1673ffffffffffffffffffffffffffffffffffffffff168152602001908152602001600020600084815260200190815260200160002060009054906101000a900460ff1615612590576040517f08c379a000000000000000000000000000000000000000000000000000000000815260040161258790615b64565b60405180910390fd5b6001600b60003373ffffffffffffffffffffffffffffffffffffffff1673ffffffffffffffffffffffffffffffffffffffff168152602001908152602001600020600085815260200190815260200160002060006101000a81548160ff02191690831515021790555060405180604001604052808381526020016040518060400160405280600981526020017f756e68616e646c65640000000000000000000000000000000000000000000000815250815250600d60003373ffffffffffffffffffffffffffffffffffffffff1673ffffffffffffffffffffffffffffffffffffffff168152602001908152602001600020600085815260200190815260200160002060008201518160000190816126a891906152b0565b5060208201518160010190816126be91906152b0565b509050503373ffffffffffffffffffffffffffffffffffffffff167f7cc52ea8334c54f7001706bf7e4536669a589e26e2fe83afddc53bd285a7629e848460405161270a929190615b84565b60405180910390a2505050565b60065481565b61050481565b60608060607f21702c8af46127c7fa207f89d0b0a8441bb32959a0ac7df790e9ab1a25c9892661275281613b59565b6000805b600a60003373ffffffffffffffffffffffffffffffffffffffff1673ffffffffffffffffffffffffffffffffffffffff1681526020019081526020016000205481101561281c57600b60003373ffffffffffffffffffffffffffffffffffffffff1673ffffffffffffffffffffffffffffffffffffffff168152602001908152602001600020600082815260200190815260200160002060009054906101000a900460ff161561280f57818061280b9061505b565b9250505b8080600101915050612756565b5060008167ffffffffffffffff811115612839576128386143cf565b5b6040519080825280602002602001820160405280156128675781602001602082028036833780820191505090505b50905060008267ffffffffffffffff811115612886576128856143cf565b5b6040519080825280602002602001820160405280156128b45781602001602082028036833780820191505090505b50905060008367ffffffffffffffff8111156128d3576128d26143cf565b5b60405190808252806020026020018201604052801561290657816020015b60608152602001906001900390816128f15790505b5090506000805b600a60003373ffffffffffffffffffffffffffffffffffffffff1673ffffffffffffffffffffffffffffffffffffffff16815260200190815260200160002054811015612b3b57600b60003373ffffffffffffffffffffffffffffffffffffffff1673ffffffffffffffffffffffffffffffffffffffff168152602001908152602001600020600082815260200190815260200160002060009054906101000a900460ff1615612b2e57338583815181106129cb576129ca615bb4565b5b602002602001019073ffffffffffffffffffffffffffffffffffffffff16908173ffffffffffffffffffffffffffffffffffffffff168152505080848381518110612a1957612a18615bb4565b5b602002602001018181525050600d60003373ffffffffffffffffffffffffffffffffffffffff1673ffffffffffffffffffffffffffffffffffffffff16815260200190815260200160002060008281526020019081526020016000206000018054612a8390614b7b565b80601f0160208091040260200160405190810160405280929190818152602001828054612aaf90614b7b565b8015612afc5780601f10612ad157610100808354040283529160200191612afc565b820191906000526020600020905b815481529060010190602001808311612adf57829003601f168201915b5050505050838381518110612b1457612b13615bb4565b5b60200260200101819052508180612b2a9061505b565b9250505b808060010191505061290d565b50838383985098509850505050505050909192565b6000600160009054906101000a900473ffffffffffffffffffffffffffffffffffffffff1673ffffffffffffffffffffffffffffffffffffffff166370a08231306040518263ffffffff1660e01b8152600401612bad91906141e6565b602060405180830381865afa158015612bca573d6000803e3d6000fd5b505050506040513d601f19601f82011682018060405250810190612bee9190614bc1565b905090565b600080600860008573ffffffffffffffffffffffffffffffffffffffff1673ffffffffffffffffffffffffffffffffffffffff168152602001908152602001600020600084815260200190815260200160002090508060060160009054906101000a900460ff16612c99576040517f08c379a0000000000000000000000000000000000000000000000000000000008152600401612c9090615672565b60405180910390fd5b806005015491505092915050565b600460009054906101000a900473ffffffffffffffffffffffffffffffffffffffff1681565b600080600084815260200190815260200160002060000160008373ffffffffffffffffffffffffffffffffffffffff1673ffffffffffffffffffffffffffffffffffffffff16815260200190815260200160002060009054906101000a900460ff16905092915050565b600e6020528060005260406000206000915090505481565b6000801b81565b600460009054906101000a900473ffffffffffffffffffffffffffffffffffffffff1673ffffffffffffffffffffffffffffffffffffffff163373ffffffffffffffffffffffffffffffffffffffff1614612de6576040517f08c379a0000000000000000000000000000000000000000000000000000000008152600401612ddd90614b2c565b60405180910390fd5b7f33caf5deb26c1cd11e3072c1d72a565472108e37afcbfe9146573f1dd01057c660055482604051612e199291906155fd565b60405180910390a18060058190555050565b600160009054906101000a900473ffffffffffffffffffffffffffffffffffffffff1681565b60055481565b600260009054906101000a900473ffffffffffffffffffffffffffffffffffffffff1681565b600c6020528060005260406000206000915090505481565b6008602052816000526040600020602052806000526040600020600091509150508060000154908060010160009054906101000a900473ffffffffffffffffffffffffffffffffffffffff16908060020154908060030154908060040154908060050154908060060160009054906101000a900460ff1690806007015490806008018054612f2290614b7b565b80601f0160208091040260200160405190810160405280929190818152602001828054612f4e90614b7b565b8015612f9b5780601f10612f7057610100808354040283529160200191612f9b565b820191906000526020600020905b815481529060010190602001808311612f7e57829003601f168201915b5050505050905089565b600760009054906101000a900460ff16612ff4576040517f08c379a0000000000000000000000000000000000000000000000000000000008152600401612feb90615c2f565b60405180910390fd5b60003411613037576040517f08c379a000000000000000000000000000000000000000000000000000000000815260040161302e90614c3a565b60405180910390fd5b6130443460008484613896565b5050565b600760009054906101000a900460ff1681565b7f21702c8af46127c7fa207f89d0b0a8441bb32959a0ac7df790e9ab1a25c9892681565b6130888261116d565b61309181613b59565b61309b8383613c55565b505050565b7f21702c8af46127c7fa207f89d0b0a8441bb32959a0ac7df790e9ab1a25c989266130ca81613b59565b600b60008473ffffffffffffffffffffffffffffffffffffffff1673ffffffffffffffffffffffffffffffffffffffff168152602001908152602001600020600083815260200190815260200160002060009054906101000a900460ff16613167576040517f08c379a000000000000000000000000000000000000000000000000000000000815260040161315e90614e6c565b60405180910390fd5b6000600b60008573ffffffffffffffffffffffffffffffffffffffff1673ffffffffffffffffffffffffffffffffffffffff168152602001908152602001600020600084815260200190815260200160002060006101000a81548160ff0219169083151502179055506040518060400160405280600a81526020017f756e617070726f76656400000000000000000000000000000000000000000000815250600d60008573ffffffffffffffffffffffffffffffffffffffff1673ffffffffffffffffffffffffffffffffffffffff1681526020019081526020016000206000848152602001908152602001600020600101908161326591906152b0565b508273ffffffffffffffffffffffffffffffffffffffff167f0c326a44da3e02b59f6904e7feb67778525d715c8761a4927c18488680a79e8e8333600d60008873ffffffffffffffffffffffffffffffffffffffff1673ffffffffffffffffffffffffffffffffffffffff168152602001908152602001600020600087815260200190815260200160002060000160405161330293929190615406565b60405180910390a2505050565b6009602052816000526040600020818154811061332b57600080fd5b90600052602060002001600091509150505481565b600460009054906101000a900473ffffffffffffffffffffffffffffffffffffffff1673ffffffffffffffffffffffffffffffffffffffff163373ffffffffffffffffffffffffffffffffffffffff16146133d0576040517f08c379a00000000000000000000000000000000000000000000000000000000081526004016133c790614b2c565b60405180910390fd5b600081905060008173ffffffffffffffffffffffffffffffffffffffff166370a08231306040518263ffffffff1660e01b815260040161341091906141e6565b602060405180830381865afa15801561342d573d6000803e3d6000fd5b505050506040513d601f19601f820116820180604052508101906134519190614bc1565b90508173ffffffffffffffffffffffffffffffffffffffff1663a9059cbb600460009054906101000a900473ffffffffffffffffffffffffffffffffffffffff16836040518363ffffffff1660e01b81526004016134b0929190614c5a565b6020604051808303816000875af11580156134cf573d6000803e3d6000fd5b505050506040513d601f19601f820116820180604052508101906134f39190614c98565b613532576040517f08c379a000000000000000000000000000000000000000000000000000000000815260040161352990614d48565b60405180910390fd5b600460009054906101000a900473ffffffffffffffffffffffffffffffffffffffff1673ffffffffffffffffffffffffffffffffffffffff168373ffffffffffffffffffffffffffffffffffffffff167fbfed55bdcd242e3dd0f60ddd7d1e87c67f61c34cd9527b3e6455d841b1025362836040516135b191906143aa565b60405180910390a3505050565b60007f01ffc9a7000000000000000000000000000000000000000000000000000000007bffffffffffffffffffffffffffffffffffffffffffffffffffffffff1916827bffffffffffffffffffffffffffffffffffffffffffffffffffffffff1916149050919050565b6000811161366b576040517f08c379a00000000000000000000000000000000000000000000000000000000081526004016136629061574a565b60405180910390fd5b600160009054906101000a900473ffffffffffffffffffffffffffffffffffffffff1673ffffffffffffffffffffffffffffffffffffffff1663095ea7b373f1d4797e51a4640a76769a50b57abe7479add3d8836040518363ffffffff1660e01b81526004016136dc929190614c5a565b6020604051808303816000875af11580156136fb573d6000803e3d6000fd5b505050506040513d601f19601f8201168201806040525081019061371f9190614c98565b50600360009054906101000a900473ffffffffffffffffffffffffffffffffffffffff1673ffffffffffffffffffffffffffffffffffffffff166324af044773ffffffff1fcacbd218edc0eba20fc2308c77808083306040518463ffffffff1660e01b815260040161379393929190615c9b565b600060405180830381600087803b1580156137ad57600080fd5b505af11580156137c1573d6000803e3d6000fd5b5050505080600e600073ffffffff1fcacbd218edc0eba20fc2308c77808073ffffffffffffffffffffffffffffffffffffffff1673ffffffffffffffffffffffffffffffffffffffff168152602001908152602001600020600082825461382891906150a3565b925050819055503373ffffffffffffffffffffffffffffffffffffffff167f9f9e4044c5742cca66ca090b21552bac14645e68bad7a92364a9d9ff18111a1c8273ffffffff1fcacbd218edc0eba20fc2308c77808060405161388b929190615985565b60405180910390a250565b60158210156138da576040517f08c379a00000000000000000000000000000000000000000000000000000000081526004016138d190615d57565b60405180910390fd5b6000600a60003373ffffffffffffffffffffffffffffffffffffffff1673ffffffffffffffffffffffffffffffffffffffff168152602001908152602001600020600081548092919061392c9061505b565b9190505590506040518061012001604052808681526020018573ffffffffffffffffffffffffffffffffffffffff168152602001428152602001428152602001600081526020016000815260200160011515815260200184815260200183815250600860003373ffffffffffffffffffffffffffffffffffffffff1673ffffffffffffffffffffffffffffffffffffffff16815260200190815260200160002060008381526020019081526020016000206000820151816000015560208201518160010160006101000a81548173ffffffffffffffffffffffffffffffffffffffff021916908373ffffffffffffffffffffffffffffffffffffffff16021790555060408201518160020155606082015181600301556080820151816004015560a0820151816005015560c08201518160060160006101000a81548160ff02191690831515021790555060e08201518160070155610100820151816008019081613a9691906152b0565b50905050600960003373ffffffffffffffffffffffffffffffffffffffff1673ffffffffffffffffffffffffffffffffffffffff1681526020019081526020016000208190806001815401808255809150506001900390600052602060002001600090919091909150553373ffffffffffffffffffffffffffffffffffffffff167f72247a9b462c36f087ed580968c13bcfb1a7f188f7522ebdae50d3d0afcc5975828787604051613b4a93929190615d77565b60405180910390a25050505050565b613b6a81613b65613c4d565b613d36565b50565b613b778282612ccd565b613c4957600160008084815260200190815260200160002060000160008373ffffffffffffffffffffffffffffffffffffffff1673ffffffffffffffffffffffffffffffffffffffff16815260200190815260200160002060006101000a81548160ff021916908315150217905550613bee613c4d565b73ffffffffffffffffffffffffffffffffffffffff168173ffffffffffffffffffffffffffffffffffffffff16837f2f8788117e7eff1d82e926ec794901d17c78024a50270940304540a733656f0d60405160405180910390a45b5050565b600033905090565b613c5f8282612ccd565b15613d3257600080600084815260200190815260200160002060000160008373ffffffffffffffffffffffffffffffffffffffff1673ffffffffffffffffffffffffffffffffffffffff16815260200190815260200160002060006101000a81548160ff021916908315150217905550613cd7613c4d565b73ffffffffffffffffffffffffffffffffffffffff168173ffffffffffffffffffffffffffffffffffffffff16837ff6391f5c32d9c69d2a47ea670b442974b53935d1edc7fd64eb21e047a839171b60405160405180910390a45b5050565b613d408282612ccd565b613db757613d4d81613dbb565b613d5b8360001c6020613de8565b604051602001613d6c929190615e82565b6040516020818303038152906040526040517f08c379a0000000000000000000000000000000000000000000000000000000008152600401613dae9190615ebc565b60405180910390fd5b5050565b6060613de18273ffffffffffffffffffffffffffffffffffffffff16601460ff16613de8565b9050919050565b606060006002836002613dfb9190614fb9565b613e0591906150a3565b67ffffffffffffffff811115613e1e57613e1d6143cf565b5b6040519080825280601f01601f191660200182016040528015613e505781602001600182028036833780820191505090505b5090507f300000000000000000000000000000000000000000000000000000000000000081600081518110613e8857613e87615bb4565b5b60200101907effffffffffffffffffffffffffffffffffffffffffffffffffffffffffffff1916908160001a9053507f780000000000000000000000000000000000000000000000000000000000000081600181518110613eec57613eeb615bb4565b5b60200101907effffffffffffffffffffffffffffffffffffffffffffffffffffffffffffff1916908160001a90535060006001846002613f2c9190614fb9565b613f3691906150a3565b90505b6001811115613fd6577f3031323334353637383961626364656600000000000000000000000000000000600f861660108110613f7857613f77615bb4565b5b1a60f81b828281518110613f8f57613f8e615bb4565b5b60200101907effffffffffffffffffffffffffffffffffffffffffffffffffffffffffffff1916908160001a905350600485901c945080613fcf90615ede565b9050613f39565b506000841461401a576040517f08c379a000000000000000000000000000000000000000000000000000000000815260040161401190615f53565b60405180910390fd5b8091505092915050565b6000604051905090565b600080fd5b600080fd5b60007fffffffff0000000000000000000000000000000000000000000000000000000082169050919050565b61406d81614038565b811461407857600080fd5b50565b60008135905061408a81614064565b92915050565b6000602082840312156140a6576140a561402e565b5b60006140b48482850161407b565b91505092915050565b60008115159050919050565b6140d2816140bd565b82525050565b60006020820190506140ed60008301846140c9565b92915050565b600073ffffffffffffffffffffffffffffffffffffffff82169050919050565b600061411e826140f3565b9050919050565b61412e81614113565b811461413957600080fd5b50565b60008135905061414b81614125565b92915050565b6000602082840312156141675761416661402e565b5b60006141758482850161413c565b91505092915050565b614187816140bd565b811461419257600080fd5b50565b6000813590506141a48161417e565b92915050565b6000602082840312156141c0576141bf61402e565b5b60006141ce84828501614195565b91505092915050565b6141e081614113565b82525050565b60006020820190506141fb60008301846141d7565b92915050565b6000819050919050565b61421481614201565b811461421f57600080fd5b50565b6000813590506142318161420b565b92915050565b6000806040838503121561424e5761424d61402e565b5b600061425c8582860161413c565b925050602061426d85828601614222565b9150509250929050565b61428081614201565b82525050565b600081519050919050565b600082825260208201905092915050565b60005b838110156142c05780820151818401526020810190506142a5565b60008484015250505050565b6000601f19601f8301169050919050565b60006142e882614286565b6142f28185614291565b93506143028185602086016142a2565b61430b816142cc565b840191505092915050565b60006101208201905061432c600083018c614277565b614339602083018b6141d7565b614346604083018a614277565b6143536060830189614277565b6143606080830188614277565b61436d60a0830187614277565b61437a60c08301866140c9565b61438760e0830185614277565b81810361010083015261439a81846142dd565b90509a9950505050505050505050565b60006020820190506143bf6000830184614277565b92915050565b600080fd5b600080fd5b7f4e487b7100000000000000000000000000000000000000000000000000000000600052604160045260246000fd5b614407826142cc565b810181811067ffffffffffffffff82111715614426576144256143cf565b5b80604052505050565b6000614439614024565b905061444582826143fe565b919050565b600067ffffffffffffffff821115614465576144646143cf565b5b61446e826142cc565b9050602081019050919050565b82818337600083830152505050565b600061449d6144988461444a565b61442f565b9050828152602081018484840111156144b9576144b86143ca565b5b6144c484828561447b565b509392505050565b600082601f8301126144e1576144e06143c5565b5b81356144f184826020860161448a565b91505092915050565b6000806000606084860312156145135761451261402e565b5b600061452186828701614222565b935050602061453286828701614222565b925050604084013567ffffffffffffffff81111561455357614552614033565b5b61455f868287016144cc565b9150509250925092565b6000819050919050565b61457c81614569565b811461458757600080fd5b50565b60008135905061459981614573565b92915050565b6000602082840312156145b5576145b461402e565b5b60006145c38482850161458a565b91505092915050565b6145d581614569565b82525050565b60006020820190506145f060008301846145cc565b92915050565b6000806040838503121561460d5761460c61402e565b5b600061461b8582860161458a565b925050602061462c8582860161413c565b9150509250929050565b60006020828403121561464c5761464b61402e565b5b600061465a84828501614222565b91505092915050565b6000604082019050818103600083015261467d81856142dd565b9050818103602083015261469181846142dd565b90509392505050565b600081519050919050565b600082825260208201905092915050565b6000819050602082019050919050565b6146cf81614201565b82525050565b60006146e183836146c6565b60208301905092915050565b6000602082019050919050565b60006147058261469a565b61470f81856146a5565b935061471a836146b6565b8060005b8381101561474b57815161473288826146d5565b975061473d836146ed565b92505060018101905061471e565b5085935050505092915050565b6000602082019050818103600083015261477281846146fa565b905092915050565b6000819050919050565b600061479f61479a614795846140f3565b61477a565b6140f3565b9050919050565b60006147b182614784565b9050919050565b60006147c3826147a6565b9050919050565b6147d3816147b8565b82525050565b60006020820190506147ee60008301846147ca565b92915050565b6000806040838503121561480b5761480a61402e565b5b600061481985828601614222565b925050602083013567ffffffffffffffff81111561483a57614839614033565b5b614846858286016144cc565b9150509250929050565b600067ffffffffffffffff82169050919050565b61486d81614850565b82525050565b60006020820190506148886000830184614864565b92915050565b600081519050919050565b600082825260208201905092915050565b6000819050602082019050919050565b6148c381614113565b82525050565b60006148d583836148ba565b60208301905092915050565b6000602082019050919050565b60006148f98261488e565b6149038185614899565b935061490e836148aa565b8060005b8381101561493f57815161492688826148c9565b9750614931836148e1565b925050600181019050614912565b5085935050505092915050565b600081519050919050565b600082825260208201905092915050565b6000819050602082019050919050565b600082825260208201905092915050565b600061499482614286565b61499e8185614978565b93506149ae8185602086016142a2565b6149b7816142cc565b840191505092915050565b60006149ce8383614989565b905092915050565b6000602082019050919050565b60006149ee8261494c565b6149f88185614957565b935083602082028501614a0a85614968565b8060005b85811015614a465784840389528151614a2785826149c2565b9450614a32836149d6565b925060208a01995050600181019050614a0e565b50829750879550505050505092915050565b60006060820190508181036000830152614a7281866148ee565b90508181036020830152614a8681856146fa565b90508181036040830152614a9a81846149e3565b9050949350505050565b6000614aaf826147a6565b9050919050565b614abf81614aa4565b82525050565b6000602082019050614ada6000830184614ab6565b92915050565b7f43616c6c6572206973206e6f7420746865206f776e6572000000000000000000600082015250565b6000614b16601783614291565b9150614b2182614ae0565b602082019050919050565b60006020820190508181036000830152614b4581614b09565b9050919050565b7f4e487b7100000000000000000000000000000000000000000000000000000000600052602260045260246000fd5b60006002820490506001821680614b9357607f821691505b602082108103614ba657614ba5614b4c565b5b50919050565b600081519050614bbb8161420b565b92915050565b600060208284031215614bd757614bd661402e565b5b6000614be584828501614bac565b91505092915050565b7f4465706f73697420726571756972656400000000000000000000000000000000600082015250565b6000614c24601083614291565b9150614c2f82614bee565b602082019050919050565b60006020820190508181036000830152614c5381614c17565b9050919050565b6000604082019050614c6f60008301856141d7565b614c7c6020830184614277565b9392505050565b600081519050614c928161417e565b92915050565b600060208284031215614cae57614cad61402e565b5b6000614cbc84828501614c83565b91505092915050565b6000606082019050614cda60008301866141d7565b614ce760208301856141d7565b614cf46040830184614277565b949350505050565b7f546f6b656e207472616e73666572206661696c65640000000000000000000000600082015250565b6000614d32601583614291565b9150614d3d82614cfc565b602082019050919050565b60006020820190508181036000830152614d6181614d25565b9050919050565b7f416363657373436f6e74726f6c3a2063616e206f6e6c792072656e6f756e636560008201527f20726f6c657320666f722073656c660000000000000000000000000000000000602082015250565b6000614dc4602f83614291565b9150614dcf82614d68565b604082019050919050565b60006020820190508181036000830152614df381614db7565b9050919050565b7f4e6f2070656e64696e6720636865636b2d696e20666f7220746869732068616260008201527f6974000000000000000000000000000000000000000000000000000000000000602082015250565b6000614e56602283614291565b9150614e6182614dfa565b604082019050919050565b60006020820190508181036000830152614e8581614e49565b9050919050565b7f4861626974206973206e6f742061637469766500000000000000000000000000600082015250565b6000614ec2601383614291565b9150614ecd82614e8c565b602082019050919050565b60006020820190508181036000830152614ef181614eb5565b9050919050565b7f436865636b2d696e20616c726561647920617070726f76656420666f7220746f60008201527f6461790000000000000000000000000000000000000000000000000000000000602082015250565b6000614f54602383614291565b9150614f5f82614ef8565b604082019050919050565b60006020820190508181036000830152614f8381614f47565b9050919050565b7f4e487b7100000000000000000000000000000000000000000000000000000000600052601160045260246000fd5b6000614fc482614201565b9150614fcf83614201565b9250828202614fdd81614201565b91508282048414831517614ff457614ff3614f8a565b5b5092915050565b7f4e487b7100000000000000000000000000000000000000000000000000000000600052601260045260246000fd5b600061503582614201565b915061504083614201565b9250826150505761504f614ffb565b5b828204905092915050565b600061506682614201565b91507fffffffffffffffffffffffffffffffffffffffffffffffffffffffffffffffff820361509857615097614f8a565b5b600182019050919050565b60006150ae82614201565b91506150b983614201565b92508282019050808211156150d1576150d0614f8a565b5b92915050565b60006060820190506150ec6000830186614277565b6150f96020830185614277565b6151066040830184614277565b949350505050565b60008190508160005260206000209050919050565b60006020601f8301049050919050565b600082821b905092915050565b6000600883026151707fffffffffffffffffffffffffffffffffffffffffffffffffffffffffffffffff82615133565b61517a8683615133565b95508019841693508086168417925050509392505050565b60006151ad6151a86151a384614201565b61477a565b614201565b9050919050565b6000819050919050565b6151c783615192565b6151db6151d3826151b4565b848454615140565b825550505050565b600090565b6151f06151e3565b6151fb8184846151be565b505050565b5b8181101561521f576152146000826151e8565b600181019050615201565b5050565b601f821115615264576152358161510e565b61523e84615123565b8101602085101561524d578190505b61526161525985615123565b830182615200565b50505b505050565b600082821c905092915050565b600061528760001984600802615269565b1980831691505092915050565b60006152a08383615276565b9150826002028217905092915050565b6152b982614286565b67ffffffffffffffff8111156152d2576152d16143cf565b5b6152dc8254614b7b565b6152e7828285615223565b600060209050601f83116001811461531a5760008415615308578287015190505b6153128582615294565b86555061537a565b601f1984166153288661510e565b60005b828110156153505784890151825560018201915060208501945060208101905061532b565b8683101561536d5784890151615369601f891682615276565b8355505b6001600288020188555050505b505050505050565b6000815461538f81614b7b565b6153998186614291565b945060018216600081146153b457600181146153ca576153fd565b60ff1983168652811515602002860193506153fd565b6153d38561510e565b60005b838110156153f5578154818901526001820191506020810190506153d6565b808801955050505b50505092915050565b600060608201905061541b6000830186614277565b61542860208301856141d7565b818103604083015261543a8184615382565b9050949350505050565b7f4465706f73697420616d6f756e74206d7573742062652067726561746572207460008201527f68616e207a65726f000000000000000000000000000000000000000000000000602082015250565b60006154a0602883614291565b91506154ab82615444565b604082019050919050565b600060208201905081810360008301526154cf81615493565b9050919050565b60006040820190506154eb60008301856141d7565b6154f860208301846141d7565b9392505050565b7f496e73756666696369656e7420616c6c6f77616e636520666f7220746869732060008201527f636f6e7472616374000000000000000000000000000000000000000000000000602082015250565b600061555b602883614291565b9150615566826154ff565b604082019050919050565b6000602082019050818103600083015261558a8161554e565b9050919050565b7f496e76616c696420726174696f00000000000000000000000000000000000000600082015250565b60006155c7600d83614291565b91506155d282615591565b602082019050919050565b600060208201905081810360008301526155f6816155ba565b9050919050565b60006040820190506156126000830185614277565b61561f6020830184614277565b9392505050565b7f4861626974206e6f742061637469766500000000000000000000000000000000600082015250565b600061565c601083614291565b915061566782615626565b602082019050919050565b6000602082019050818103600083015261568b8161564f565b9050919050565b7f526577617264207472616e73666572206661696c656400000000000000000000600082015250565b60006156c8601683614291565b91506156d382615692565b602082019050919050565b600060208201905081810360008301526156f7816156bb565b9050919050565b7f416d6f756e74206d7573742062652067726561746572207468616e207a65726f600082015250565b6000615734602083614291565b915061573f826156fe565b602082019050919050565b6000602082019050818103600083015261576381615727565b9050919050565b60008160601b9050919050565b60006157828261576a565b9050919050565b600061579482615777565b9050919050565b6157ac6157a782614113565b615789565b82525050565b60006157be828461579b565b60148201915081905092915050565b60006fffffffffffffffffffffffffffffffff82169050919050565b6157f2816157cd565b82525050565b600081519050919050565b600082825260208201905092915050565b600061581f826157f8565b6158298185615803565b93506158398185602086016142a2565b615842816142cc565b840191505092915050565b7f556e7374616b6500000000000000000000000000000000000000000000000000600082015250565b6000615883600783614291565b915061588e8261584d565b602082019050919050565b6000819050919050565b600063ffffffff82169050919050565b60006158ce6158c96158c484615899565b61477a565b6158a3565b9050919050565b6158de816158b3565b82525050565b600060c0820190506158f960008301886141d7565b61590660208301876157e9565b6159136040830186614864565b81810360608301526159258185615814565b9050818103608083015261593881615876565b905061594760a08301846158d5565b9695505050505050565b600061595c82614201565b915061596783614201565b925082820390508181111561597f5761597e614f8a565b5b92915050565b600060408201905061599a6000830185614277565b6159a760208301846141d7565b9392505050565b7f4e6f2061637469766520686162697420666f7220746869732049440000000000600082015250565b60006159e4601b83614291565b91506159ef826159ae565b602082019050919050565b60006020820190508181036000830152615a13816159d7565b9050919050565b7f486162697420697320636f6d706c657465642100000000000000000000000000600082015250565b6000615a50601383614291565b9150615a5b82615a1a565b602082019050919050565b60006020820190508181036000830152615a7f81615a43565b9050919050565b7f43616e6e6f7420636865636b20696e206f6e207468652073616d652064617900600082015250565b6000615abc601f83614291565b9150615ac782615a86565b602082019050919050565b60006020820190508181036000830152615aeb81615aaf565b9050919050565b7f50726576696f757320636865636b2d696e2069732070656e64696e672061707060008201527f726f76616c000000000000000000000000000000000000000000000000000000602082015250565b6000615b4e602583614291565b9150615b5982615af2565b604082019050919050565b60006020820190508181036000830152615b7d81615b41565b9050919050565b6000604082019050615b996000830185614277565b8181036020830152615bab81846142dd565b90509392505050565b7f4e487b7100000000000000000000000000000000000000000000000000000000600052603260045260246000fd5b7f455448207472616e73616374696f6e73206172652064697361626c6564000000600082015250565b6000615c19601d83614291565b9150615c2482615be3565b602082019050919050565b60006020820190508181036000830152615c4881615c0c565b9050919050565b7f5374616b65000000000000000000000000000000000000000000000000000000600082015250565b6000615c85600583614291565b9150615c9082615c4f565b602082019050919050565b6000608082019050615cb060008301866141d7565b615cbd6020830185614277565b615cca60408301846141d7565b8181036060830152615cdb81615c78565b9050949350505050565b7f48616269742063616e2774206265206275696c7420756e64657220323120646160008201527f7973000000000000000000000000000000000000000000000000000000000000602082015250565b6000615d41602283614291565b9150615d4c82615ce5565b604082019050919050565b60006020820190508181036000830152615d7081615d34565b9050919050565b6000606082019050615d8c6000830186614277565b615d996020830185614277565b615da660408301846141d7565b949350505050565b600081905092915050565b7f416363657373436f6e74726f6c3a206163636f756e7420000000000000000000600082015250565b6000615def601783615dae565b9150615dfa82615db9565b601782019050919050565b6000615e1082614286565b615e1a8185615dae565b9350615e2a8185602086016142a2565b80840191505092915050565b7f206973206d697373696e6720726f6c6520000000000000000000000000000000600082015250565b6000615e6c601183615dae565b9150615e7782615e36565b601182019050919050565b6000615e8d82615de2565b9150615e998285615e05565b9150615ea482615e5f565b9150615eb08284615e05565b91508190509392505050565b60006020820190508181036000830152615ed681846142dd565b905092915050565b6000615ee982614201565b915060008203615efc57615efb614f8a565b5b600182039050919050565b7f537472696e67733a20686578206c656e67746820696e73756666696369656e74600082015250565b6000615f3d602083614291565b9150615f4882615f07565b602082019050919050565b60006020820190508181036000830152615f6c81615f30565b905091905056fea2646970667358221220597f6d863b6d1b000b7b48c2bc72be9c4cadf7bfb0b7f8cfa834826d8a28d8e464736f6c634300081b0033",
  "linkReferences": {},
  "deployedLinkReferences": {}
}